:400000000080002011000000690400006904000008B500F043FA0000F8B572B680250024474EED003460211C2A1C464801F0A0FA2A1C0125211C444801F09AFA434B802112
:400040001D70434B434A1D70434B89031C6099231B041360414A3C201360414A414F1360414A11600221414A1360414A13780B43404913700B788343283803430B70162151
:4000800013780B43137020223B4B1A60C0223B4B92021A60A0223A4B12011A600422394B1A60394B7C321A60384B503A1A60384BB0321A60DB22374B12041A600522364B6B
:4000C0001A601223354A136000F0DAFD344800F067FC281C00F0E0FD0C2000F0A3FC80230221FA202F4ADB053B60136807350B4313602D4A2D4BC0001A603368AB4333606C
:4001000000F022FD2A4800F083FC8022294B12061A60294B281C1C60284900F051FC281C00F056FC8023DB053B601C4B244A1C6003231360234A1360234B1C60F8BDC04632
:400140006CF02E4000300F4000400F4002600F4011600F4000500F400000024010500F4020500F400C020B4024500F4030500F4000700F4001700F400000044008000440ED
:400180000801044000020440080204400C02044000030440080304400804044030001040001BB70078002E404E4E00007C002E40DC05000008010B4000010B40850D000055
:4001C0003000304030003140000E3F4010B5064C2378002B07D1054B002B02D0044800E000BF0123237010BD3810002000000000142F010008B5084B002B03D00748084966
:4002000000E000BF07480368002B00D108BD064B002BFBD09847F9E700000000142F01003C100020A80B00200000000070B5041C33480D1C00F0F0F8272C1ED004D8012C10
:4002400007D0262C1DD056E0282C09D04C2C22D051E02C4800F0E0F8002000F0DBF94AE0294800F0D9F8002000F0D4F9274800F0D3F80122264B1A703DE0264800F0CCF88A
:4002800039E0254B1B78042B35D10122204B1A7000F0ACFC2FE0214800F0BEF8002D0BD11F4A50781378000218430DF087FA011C1C4801F065F91EE0AB89102BF0D11A481F
:4002C00000F0AAF86B68002BEAD0114E7378DCB2002CE5D12989154801F052F901237370231C2A899A42DBD96A68D15CB21CD1540133DBB2F5E70E4800F08EF870BDC04698
:40030000182F01002C2F0100442F0100552F010054100020642F0100B5210020752F0100B7210020922F0100C02F0100D42F0100E62F010008B500F037FE00F007FE08BD0D
:4003400010B500F0EDFD00F0F9FD0028FBD0FA20400000F047FB00F0F1FD0028FBD0224800F010FE00F0F2FD00F01EFE00F056FC002000F01FFE62B61C4800F04DF81C4CCD
:40038000201C00F049F81B4800F046F81A4800F043F8201C00F040F8184800F0E7F802F04FF8174C2378012B0FD06378012BF6D1144800F031F8144800F02EF8A11C134810
:4003C00001F0DEF800236370E9E7114800F024F8002000F0EFFD0F4800F01EF800F0A1FD00F004FC002010BD35030000FA2F01000C30010036300100423001002D0200009F
:4004000054100020A5300100BB300100D83001005D3001008930010037B50224051C221C01A8094901F09BF8211C01A800F07AFD281C01F0BFF8011C281C00F073FD01A892
:40044000211C00F06FFD37BDDD30010070B50E1C151C0C1CA31BAB4204DA207800F0F0FC0134F7E7281C70BDFEE70000031C10B580240849084A0868E400C3189A1AA242E1
:4004800001DC0B6005E001F02FF80C2303600120404210BDAC0B0020C021002070B51049104B01394A1C15D000221E685C689D68A018AA4203D0B058A0500432F8E7021CAC
:4004C000DC68151AA54202D0002520C2F9E710330139E7E701F00EF8FFF732FFFEE7C046010000008033010001210E4A10B51368141C8B43136000239A000B49032B01D89D
:400500000A4989580A4801338150302BF4D1FFF783FD0022074B1A60236801321343236010BDC04600001040690400000000000000000020C000002010B50024064B1C70BF
:40054000064B1C70064B1C7000F028FA054B1C70054B1C7010BDC046BA210020B6210020B921002098210020A021002030B591B0041C1F490BA8142200F0F1FF1D4D2B78FA
:40058000002B03D1FFF7D8FF01232B700120002C2BD0194B00211C601B2408A805AA06AB0181117016311C805C806944173C426008931C7102F01AF8002816D10523AE2281
:4005C00000930E4B0E4801930E4B0F49029312010BAB01F067FF002807D101220B4B0C481A70122113320DF009FE11B030BDC046F03001006A1000209C210020003C010063
:400600000D07000079020000C8000020B521002004310100021C10B50120022A2FD8184B1B78042B29D1174C2178194225D1164B002A08D1191C3B3050310880596CE4308E
:40064000088020300BE0012A0AD1191C962050310880C820596CC00008808020C00148800A494033181C0A700BF004FF002806D1042223781343237001E00420FF3010BD83
:40068000B5210020BA210020B00B0020B92100207047437800781B021843704738B5838900250D2B1BD1041C291C0430221C33330DF0BCFD051E0DD16068FFF7EAFF094B2A
:4006C0001B68820702D58220400001E00620FF30211C98470121044A13788B431370281C38BDC0469C210020BA210020002382799A4208D1821D0378002B03D10130904291
:40070000F9D100E00123181C70470000F0B501268F4B87B01A78041C32430D1C1A700193272800D1B6E014D8062800D18DE007D8B04234D0052800D0F8E00A78854B82E049
:4007400024287ED0262800D1A6E0212800D0EDE08BE0422800D1C2E017D828286ED0412800D0E3E07C4E0222301C00F0F8FE0022784B31781A7014325143784B784859188D
:40078000784BC91800F0EBFED0E04C2800D1B2E0FA2800D1C6E0432800D0C7E0A3E00023072705AE301C7370377003F09FFD301C3770747003F09AFD6B4F3B68181C029347
:4007C000FFF794FF0390002808D0029801F03CFE38680021FFF75CFF386822E01F213F20624B634F1A78634B02401B7892011940614B09031B780A43034013435F4A381C37
:4008000011787F220A40520413431A0A3B701B0C7A70BB7001F018FE381C0399FFF738FF381C211CFFF734FF00200BF0D3FC3F2333700023301C73700BF0EAFC0422504BCC
:4008400001E04A784F4B1A7070E00B78002B6DD14A78002A05D14C4BDA809A804B4A4B601A60019B01221B7833E0019B1B789B065CD447490B78102B01D10B3BCB70364B67
:4008800018780BF0B7FD0122019B1B781343019A13704BE00222D2E7394B19781A1C022944D001980078304240D0019806780420064205D003221A70019B1B788343E6E745
:4008C000019B1B781B0706D5042313700822019B1B789343DBE70423032927D1D8E700221D4B5A70AFE74988162900D9172128880CF0ECFE1AE0081CFFF7D0FE019B1B7875
:40090000334213D1002809D0122305A98B70AB89C87028680B800CF0CFFE07E028680CF04DFF03E01B4A13781E431670019B1A7811231A420AD00122019B201C1B78291C4B
:400940009343019A1370144B1B68984707B0F0BDBA210020B6210020B7210020003C0100A121002079020000040C00207DF2FF0F080C00207BF2FF0F7CF2FF0F78F2FF0F8A
:40098000B5210020A02100206C100020A80B0020BC0C0020982100209C210020704700000230800803D00138FDD1C046C046C0467047EFF3108072B6704780F3108870472C
:4009C000024B8000C318186819607047400000201F2318401E3B8340181C014B1860704700E100E010B5041C8022074B1202944205D91868FFF7D4FF044BE418F4E7586849
:400A00006043FFF7CDFF10BDC40C00200080FFFF08B5034B1B7A5843FFF7C2FF08BDC046C40C0020F0B5051C87B0FFF7C2FFEB1E049003932D2B5BD8304B1B789D4204D82E
:400A40002F4B1C782F4BE4B21EE02F4B1B789D4204D82E4B1C782E4BE4B215E02D4B1B789D4204D82C4B1C782C4BE4B20CE02C4B1B789D4204D82B4B1C782B4BE4B203E0F9
:400A80002A4B1C782A4BE4B21B78039ADBB20193284B294F9A5C059302922F2A04D92A2D02D919263E6008E03F233E681E40029BB34205D2204B029A1A600520FFF770FFBD
:400AC0001B4B1E4AED182B780520DBB213601C4B019A1C601B4B1A60FFF79AFF029BB34206D9059B039A05209B5C3B60FFF758FF0498FFF762FF07B0F0BDC04640F3FF0F1E
:400B000041F3FF0F42F3FF0F43F3FF0F44F3FF0F45F3FF0F46F3FF0F47F3FF0F48F3FF0F49F3FF0F4AF3FF0F4BF3FF0F4CF3FF0F4DF3FF0F943201002CFF0B4028FF0B405E
:400B40001CFF0B4020FF0B4001210F4A10B51368041C0B43802113600C4A0D4B09021A600C4A13680B431360002801D100200AE00120FFF74DFF084B1B68DB07F6D4013C7D
:400B8000002CF5D1102010BD60F02E400220000078002E4010002E400C002E4008B5FFF708FF0421034A13688B43136030BFFFF704FF08BD10ED00E008B5FFF7FAFE084B18
:400BC0001A68920309D41968064A0A4006490A431A601A681A681A681A60FFF7EEFE08BD2C000B40FF000100003A028010B5FFF7E0FE8023084C5B0222681340F2221343C2
:400C00002360FFF7D9FF80222368120613432360C046C04630BF10BD2C000B4010B5E824FFF7C7FE074B08491A68A4010A4022431A601A681A681A6811401960FFF7BDFE86
:400C400010BDC0462C000B40FF00010001200A4A136883431360022311689943116007492E330A689A43203B1A430A6007220B68934303430B60704700F02E4000FF2E404F
:400C800008B5FFF7E3FF8021024A090613680B43136008BD00F02E400122104B70B51C681440002815D0904215D1022507261968A94319600A490A68B2432A430A600A68C7
:400CC0002E35AA43103D2A430A601A681043186001E0FFF7BBFF201C70BDC04600F02E4000FF2E4008B5FFF764FEC021034A090213680B431360FFF760FE08BD00010B4079
:400D000010B58024FFF755FE0749084B0A68E4011A4022430A600A6813408022120213430B60FFF74AFE10BD00010B40FF3FFFFF70B5051CFFF73DFE0E4B041C1A68C023BA
:400D40001B02134011D10C480C490540281C0E680B4A3240104308600A68012B01D1FFF7C1FF201CFFF729FE70BDFFF7C9FF0123E9E7C04600010B400404040010020B40DE
:400D8000FBFBFBFF042238B5224C2368134213D021494B6813420CD0204B5D6A48681540A8434860596A914359629B69002B00D098470420FFF7BCFF80232268DB001A427E
:400DC00015D015494A681A420DD0144A556A48682B4098434860516A114B0B405362D369002B00D098478020C000FFF7A1FF80232268DB021A420CD0074A52681A4204D06A
:400E0000064B1B6A002B00D098478020C002FFF78FFF38BD10020B40D40C002074100020FFFBFFFF000000000000000000000000000000000000000000000000000000002E
:400E4000FEB5494652465B460EB407462E4909688A462E4A12682E48022100F0C3F903002A480068C0182A4900F0BCF906001F3EB346234A126801219140C9430C000125B8
:400E80000026FFF796FD814651460B6823400B6058460430FFF784FD3800F040284090400B68234003430B605846FFF779FD0136072EF1D900200130012090400B6823401C
:400EC00003430B6058460630FFF76AFD4846FFF774FDC046C046C0460EBC894692469B46FEBDC046C046C046C046C046C046C046C046C046C046C046C046C046C046C046A2
:400F0000E00C00209C100020DC0C0020D00C002000C20100C046C046C046C046C046C0467047704738B5041C4518AC4204D02078FFF786FF0134F8E738BD0000024B18686B
:400F40004007C00F7047C046040204400423034A1068184010608008C0B270471002044010B5041CFFF725FD0449054A0B68A405134023430B60FFF720FD10BD00E400E01C
:400F8000FFFF3FFF10B50424044B1C60044B98640320FFF7E5FF034B1C6010BD80E100E00000002000E100E00422014B1A60704780E200E008230449C0000A689A43D2B24C
:400FC000034013430B6070470001044001607047016070472B4B2C4A19782C4B09021B7819432B4B1B7812781B021343294A934204D1072909D1284B033906E0D422120108
:40100000934202D1042900D1234B244A1360244B244A1960244B1B7812781B021343234A134200D1224B234A23491360234A0B7812781B021343224A934204D0214A9342D8
:4010400001D0052B00D1204B204A1360204B214A1B681268AA2A14D11F2B12D90B780E2B0FD11D4B1D4A1B7812781B0213431C4A13601C4B1C4A1B7812781B0213431B4AFF
:401080001360704759F1FF0F5EF1FF0F58F1FF0F5FF1FF0F580B0000580D00006C002E4074002E405AF1FF0F5BF1FF0FFFDFFFFF0220000078002E405DF1FF0F5CF1FF0FCA
:4010C0000F0F000005050000050F000080002E40EC0F00F0E00F00F06DF2FF0F6CF2FF0F84002E406FF2FF0F6EF2FF0F94002E4008B5FFF78DFC08BD08B500F05FF808BD88
:4011000008B500F063F808BD08B500F05FF8034800F02AF8032000F02DF808BDDD11000008B5024800F036F808BDC046DD11000000487047010200002B2070472B207047B2
:401140002B2070472B2070472B2070472B2070472B2070472B2070472B2070472B2070472B20704770470000014B18677047C0460000002010B5041CFFF71BFCC021044ADD
:40118000A40113688B4323431360FFF716FC10BD0CE400E010B58024054B64011C60054B18670320FFF7E6FF034B1C6010BDC04680E100E00000002000E100E08022024BAE
:4011C00052011A607047C04600E100E08022024B52011A607047C04680E100E008B511F085FE08BD002243088B4274D303098B425FD3030A8B4244D3030B8B4228D3030C82
:401200008B420DD3FF22090212BA030C8B4202D31212090265D0030B8B4219D300E0090AC30B8B4201D3CB03C01A5241830B8B4201D38B03C01A5241430B8B4201D34B0329
:40124000C01A5241030B8B4201D30B03C01A5241C30A8B4201D3CB02C01A5241830A8B4201D38B02C01A5241430A8B4201D34B02C01A5241030A8B4201D30B02C01A524137
:40128000CDD2C3098B4201D3CB01C01A524183098B4201D38B01C01A524143098B4201D34B01C01A524103098B4201D30B01C01A5241C3088B4201D3CB00C01A52418308C8
:4012C0008B4201D38B00C01A524143088B4201D34B00C01A5241411A00D20146524110467047FFE701B5002000F0FCF802BDC0460029F7D003B5FFF775FF0EBC4243891A34
:401300001847C04603460B437FD4002243088B4274D303098B425FD3030A8B4244D3030B8B4228D3030C8B420DD3FF22090212BA030C8B4202D31212090265D0030B8B4267
:4013400019D300E0090AC30B8B4201D3CB03C01A5241830B8B4201D38B03C01A5241430B8B4201D34B03C01A5241030B8B4201D30B03C01A5241C30A8B4201D3CB02C01AD1
:401380005241830A8B4201D38B02C01A5241430A8B4201D34B02C01A5241030A8B4201D30B02C01A5241CDD2C3098B4201D3CB01C01A524183098B4201D38B01C01A524137
:4013C00043098B4201D34B01C01A524103098B4201D30B01C01A5241C3088B4201D3CB00C01A524183088B4201D38B00C01A524143088B4201D34B00C01A5241411A00D288
:4014000001465241104670475DE0CA0F00D04942031000D34042534000229C4603098B422DD3030A8B4212D3FC22890112BA030A8B420CD3890192118B4208D3890192118E
:401440008B4204D389013AD0921100E08909C3098B4201D3CB01C01A524183098B4201D38B01C01A524143098B4201D34B01C01A524103098B4201D30B01C01A5241C308BC
:401480008B4201D3CB00C01A524183088B4201D38B00C01A5241D9D243088B4201D34B00C01A5241411A00D20146634652415B10104601D34042002B00D54942704763462E
:4014C0005B1000D3404201B5002000F00BF802BD0029F8D003B5FFF715FF0EBC4243891A1847C0467047C046014B18687047C046301000200E4B70B500251E1C0D4CE41AC0
:40150000A410A54204D0AB00F35898470135F8E711F024FF084B00251E1C084CE41AA410A54204D0AB00F35898470135F8E770BD683301006833010068330100703301002C
:4015400030B50024944208D0035D651C0C5DA34201D0181B02E02C1CF4E7002030BD002310B5934203D0CC5CC4540133F9E710BD031C8218934202D019700133FAE7704709
:401580000FB40B4B13B51C68002C05D0A369002B02D1201C00F058F805AB201CA168049A019300F063F916BC08BC04B01847C046301000200023C25C0133002AFBD1581EDC
:4015C0007047000008B5024900F0AEF808BDC0464D210000002310B5041C03604360836081814366C281036143618361191C08225C30FFF7BDFF054B24626362044BA36206
:40160000044BE362044B236310BDC046BD1D0000E51D00001D1E0000491E000070B568254B1E5D430E1C291C743100F09FF8041E08D000212A1C016046600C30A06068325C
:40164000FFF796FF201C70BD836913B5002B28D18364C3640365134B134A1B6882620193984201D101238361041C00F01FF86060201C00F01BF8A060201C00F017F8042138
:40168000E06000226068FFF7A5FFA06809210122FFF7A0FFE06812210222FFF79BFF0123A36113BDC4320100C5150000F8B51D4B061C1D68AB69002B02D1281CFFF7C4FFB9
:4016C0004835AC686B68013B05D40C22A75E002F10D06834F7E72B68002B06D1301C0421FFF79CFF2860002801D02D68E9E70C23336016E00123201C5B42E3810233A381C6
:4017000067662760A760676027616761A7615C30391C0822FFF72CFF201C6763A763A764E764F8BDC4320100F7B5041C071C002601914834002C16D06368A5680093009BB6
:40174000013B00930DD4AB89012B08D90E22AB5E013304D0381C291C019B984706436835EDE72468E6E7301CFEBD0000032370B5CC1C9C430834051C0C2C01D20C2405E07A
:40178000002C03DA0C2300202B6042E08C42F9D3204A1368101C191C002913D00A68121B0DD40B2A02D90A608B181FE08B4202D15A6802601BE04A685A600B1C17E00B1C2C
:4017C0004968E9E7144E3368002B03D1281C00F0E3FA3060281C211C00F0DEFA031C421CD0D00322C61C964386420AD11C60181C07210B301A1D8843821A0AD051429950DB
:4018000007E0311A281C00F0C7FA431CBAD0331CECE770BD9421002090210020936810B5013B9360002B05DA9469A34208DBCBB20A2B05D01368581C10601970C8B201E01B
:4018400000F008FB10BDF8B5061C0F1C141CD518AC4208D02178301C3A1CFFF7DFFF0134431CF5D100E00020F8BD0000F0B59FB0061C0F1C02920593002804D08369002B2D
:4018800001D1FFF7E1FE794B9F4201D1776808E0774B9F4201D1B76803E0764B9F4200D1F768BB891B070AD53B69002B07D0002306AD6B6120336B761033AB763DE0301C6C
:4018C000391C00F033FB0028F1D001204042CAE0059A111D12680591002A7EDB0992013423782E2B00D189E021786348032200F0C5FC002808D0604B0134C01A40238340E7
:40190000181C2B68184328602178631C5B4806220293297600F0B2FC002800D191E0584B002B00D084E00722059B07339343083305936B69039A9B186B61029C2378002BDC
:4019400004D1029BE31A049311D003E0252BF8D00134F3E7049B301C391C029AFFF773FF431C7BD06A69049B944663446B612378002B73D00122002352426A6002A95432EB
:40198000521801342B60EB60AB601370AB6521783C48052200F072FC002809D0394B0134C01A01238340181C2B6818432860EEE72B68DA0604D55322202102A81218117021
:4019C0001A0704D553222B2102A81218117022782A2A00D17CE7099B05E05242EA60022213432B607BE72278303A092A04D80A214B4301349B18F6E7099371E763782A2B32
:401A000009D1059B02341A1D1B680592002B0DDA01235B420AE0002301342278303A092A04D80A214B4301349B18F6E707935BE705AB0093301C291C3A1C134B00E000BFFC
:401A400007E005AB0093301C291C3A1C0E4B00F08BF80390039B013300D06AE7BB895B0600D532E70B981FB0F0BDC046C8320100E8320100083301002E3301003233010031
:401A8000000000002833010047180000F7B5171C01930A698B6800900C1C934200DA131C221C3B6043321278002A01D001333B6023689B0602D53B6802333B60062523682E
:401AC0001D401ED0231C43331B785A1E9341226892061CD53020E1184031C870211C5A1C45310978A21840320233D1700FE0221C0123009801991932089EB047431C0ED00E
:401B00000135E3683A689B1A9D42F0DBDAE7221C009801994332089DA847431C02D10120404220E006232068E1683A6803400025042B03D18D1AEB43DB171D40A368226953
:401B4000934201DD9B1AED180027AF420ADA221C0123009801991A32089EB047431CDED00137F2E70020FEBDF0B58BB006920A1C43320793059004920A7E0C1C109B6E2ABB
:401B800000D1A8E011D8632A22D009D8002A00D1B2E0582A00D0C2E045310A707C4A4FE0642A1DD0692A1BD0B9E0732A00D1A7E009D86F2A29D0702A00D0B0E02022096876
:401BC0000A43226037E0752A1FD0782A33D0A6E00E1C1A684236111D196013683370A1E021681A68080606D4490604D5111D19600023D55E02E0111D19601568002D3BDA7C
:401C00002D23049A6D42137036E021681A68080606D4490604D51568111D1960ADB202E0111D196015685A4B227E03930A276F2A1DD108271BE0221C782145321170554A9F
:401C400019680392081D226818600D68100602D4500600D5ADB2D30702D520231A4322601027002D03D1202322689A432260231C002243331A7002E00A27454B03936368A0
:401C8000A360002B03DB0422216891432160002D02D1049E002B0ED0049E281C391CFFF727FB039B013E5B5C281C3370391CFFF799FA051EF1D1082F09D12368DB0706D57F
:401CC00063682269934202DC3023013E3370049B9B1B23612BE009681A68080607D4490605D5111D19601368A28A1A8004E0111D1960136862691A600023049E236116E04B
:401D00001A68111D196016680021301C626800F0B5FA002801D0801B6060636803E0261C42363270012323610023049A1370079B05980093211C069B09AAFFF7A7FE431C7F
:401D400002D10120404221E0236905980699321C079DA847431CF4D023689B0705D4099BE068984212DA181C10E00025E368099A9B1A9D42F3DA221C0123059806991932E7
:401D8000079EB047431CDCD00135EFE70BB0F0BD393301004A33010038B50023064C051C081C2360FEF762FB431C03D12368002B00D02B6038BDC046BC21002038B50C1C50
:401DC0000E25495F00F0ACFA002803DB636D1B18636503E0A289024B1340A38138BDC046FFEFFFFFF8B51E1C8B89051C0C1C171CDB0505D50E23C95E0022022300F0D2F95D
:401E0000A289054B281C1340A3813A1C0E23E15E331C00F077F8F8BDFFEFFFFF38B50C1C0E25495F00F0BEF9A389421C03D1054A1340A38104E0802252011343A381606584
:401E400038BDC046FFEFFFFF08B50E23C95E00F0E1F808BD70B5051C0E1C141C002804D08369002B01D1FFF7EFFB234B9C4201D16C6808E0214B9C4201D1AC6803E0204B1B
:401E80009C4200D1EC68A369A360A3891B070AD52369002B07D023682269F6B2981A636998420FDB08E0281C211C00F03FF80028F1D0012040421DE0281C211C00F046F98C
:401EC0000028F6D1A3680130013BA36023685A1C22601E706369984205D0A389301CDB0708D50A2E06D1281C211C00F02FF90028DFD1301C70BDC046C8320100E8320100A0
:401F00000833010038B5051C0020074C2060081C111C1A1CFEF79AFA431C03D12368002B00D02B6038BDC046BC210020354B70B51D68061C0C1C002D05D0AB69002B02D190
:401F4000281CFFF781FB304B9C4201D16C6808E02E4B9C4201D1AC6803E02D4B9C4200D1EC68A3899AB2110723D4D10607D409220120326037321343A381404240E0530733
:401F800013D5616B002908D0231C4433994202D0301C00F07FF9002363632422A3899343A38100236360236923600822A3891343A3812369002B0BD1A023A2899B001340CC
:401FC00080229200934203D0301C211C00F0FEF80123A289134005D00023A36063695B42A36103E0910700D46369A36000202369834205D1130603D540231A43A28101381A
:4020000070BDC04630100020C8320100E83201000833010038B50023064C051C081C236000F0B6F9431C03D12368002B00D02B6038BDC046BC210020F7B58A89051C0C1CAE
:4020400013075ED44B68002B02DC0B6C002B1ADDE76A002F17D000232E682B6080235B011A4001D0626D15E0281C216A0123B847021C431C0ED12B68002B0BD01D2B01D026
:40208000162B02D12E6000205EE04021A3890B43A38159E0A3895B0706D56368D21A636B002B01D0236CD21A0023281C216AE76AB847A389421C06D12A68002A03D01D2A0A
:4020C00001D0162A19D10022626022692260DB0405D5431C02D12B68002B00D16065616B2E600029CFD0231C4433994202D0281C00F0D0F80020606326E040221343A3816F
:4021000022E00F69002FBED00B680F60DB1B01930023920700D14B69A360019B002BB2DD281C216A3A1C019BA66AB047002806DC40220120A38940421343A38104E0019B65
:402140003F181B1A0193E8E7FEBD000038B50B69051C0C1C002B01D100201CE0002804D08369002B01D1FFF76FFA0B4B9C4201D16C6808E0094B9C4201D1AC6803E0084B9E
:402180009C4200D1EC680C22A35E002BE4D0281C211CFFF751FF38BDC8320100E83201000833010038B5051C0020074C2060081C111C1A1C00F004F9431C03D12368002BA2
:4021C00000D02B6038BDC046BC210020F0B58B8991B09B0706D50B1C47330B600B6101234B6145E00C1C0E23C95E061C002904DA8023A5891D4010D10CE001AA00F0A4F8CD
:402200000028F5DBF023029D1B021D40194BED186B425D418027FF0001E000254027301C391CFFF7A3FA00280CD1A3899A051FD402221343A381231C47332360236101233A
:40224000636115E080220C4BB362A38920601343A38120616761002D0AD00E23E15E301C00F084F8002803D00122A3891343A38111B0F0BD00E0FFFFC5150000C9B28218FA
:40228000904204D003788B4202D00130F8E700207047000030B500293ED004390B68002B00DAC9181D4A1368141C002B02D14B60116031E099420DD208680A189A4203D18C
:4022C0001368C3180B6053684B60216024E08A4203D8131C5A68002AF9D11D685C198C420BD10968691858181960904214D110685268091819605A600EE08C4202D90C2324
:40230000036009E008680C18944203D114685268001908604A60596030BDC0469421002038B5051C0020074C2060081C111C1A1C00F04EF8431C03D12368002B00D02B602F
:4023400038BDC046BC21002038B50023064C051C081C111C236000F023F8431C03D12368002B00D02B6038BDBC21002038B50023064C051C081C236000F01AF8431C03D16E
:402380002368002B00D02B6038BDC046BC21002058220120014B40421A607047BC21002058220120014B40421A607047BC2100205822024B00201A607047C046BC210020CB
:4023C00058220120014B40421A607047BC21002058220120014B40421A607047BC210020134A1088810703D08107890F401A001D11791030484381B25088820703D0820783
:40240000920F801A001D800040180A494030098980B2CA0701D0503080B2890706D504495422091F09785143081880B270470000EA0C0020A010002010B501F0ABFE10BD0B
:4024400010B500F04FFA10BD10B50749044609780220002907D1204601F0ECFE002802D1204609F0ADFF10BD540E002070B504460120002C12D02368002B0FD061680029D3
:402480000CD0074D06222889208118462968FFF766F86968606809780170002070BD0000A0100020FFB585B0002768460E9D07734C481C460078002802D0082009B0F0BDAE
:4024C00010990F9801900095029105A807C800F0FBF80028F2D16946264603AB84460873002C19D0002115E08A00B75A082F09D990198078002805D0083FB7521878401CC2
:40250000187005E0002915D00027B75290198770491CC9B2A942E7D360460028CED10F9800280AD0109901F0E9F90006000E04D00120C3E701208446EEE701F02BFE29483B
:40254000002101610C300599016021888180022D03D3A1798171A17AC17100211EE0481C19E082008B00A75AE65ABE46BE4211D26F463E80B4461E190296B678BE700196B5
:402580007646E6521719029EBB78B3706646A652019EBE70401CA842E3D3491CA942DED3114800906846037B22460799069800F013F9002882D168460A4C007B60700A48C0
:4025C00001F018FE0028B4D1204607490C3006F021FF0028ADD106F03BFF0028A9D1012121706BE7E40C0020A0100020F8B5054633480E460078002802D002242046F8BD48
:40260000002E5BD000242F49002D16D02A89D0070DD02868002808D003881B3BE12B04D24088FB2801D81B2801D2012409E0900707D56868002804D1F7E7002008810860C1
:402640004860002CDAD11F482F8907811C481B21801D018041800421017119490020891C0870F80705D016480622801D2968FEF776FF1449B80703D56A68114812788270F2
:402680000F480D46801D0860001F486001F0F8FD0B48801D01F0E6FD28890CF075FE28890CF0DCFF03461033FFF79AFE1F21C018890140180249308088809FE701249DE70C
:4026C000E40C0020A0100020FFB58446384F1C460020BB883F78054602460646002F11D100290ED0029999420BD36146002908D0002C06D00A99002906D02E4B0B999942EA
:4027000002D2012004B0F0BD002144E0AB001F19BF78002F3BD0E35A002B38D07B43591889B22B0000F04AF8050410161C253100A7782388BC46FF27233BEB37BB4222D26F
:402740006346032B1FD322E0A388002B1FD0302B19D31CE02389002B19D0282B13D316E0A289002A13D01346134F233BBB420AD20DE0268A002A0AD033460F4F233BBB421A
:4027800001D2964203D901200EE0002001E000280AD16D1CEDB2099B9D42B7D31C2463435B1802998B42ACD89642AAD8AAE70000E40C002079020000BAFF000030B4744638
:4027C000641E2578641CAB4200D21D46635D5B00E31830BC18470000FFB583B0002469460C801F4606468C80002806D00598002803D004983043800701D0012467E0002F1C
:40280000FBD03449049809888842F6D3FEF788FCFEF776FC00F010FC002856D100F06CFD002852D12C49084601F09CF805042D0C4BD12A480499066081800021C1800781BB
:402840000C98007AC00704D0684601F0BCFC040007D10C98007A800703D501A801F0BCFC0446BF1DFEB2002C21D13146059800F05DF804001BD10CF0FFFE0406240E16D144
:402880006A461088928808368518144AF1B29088D288AEB29319984207D3401B801A80B201F050FB050007D000E0FF25012400F05BFA002D04D008E0F8B200F01BF9F6E787
:4028C00000F07EFA06490120087000F0C7FB204607B0F0BDE80C0020192A0000AC100020F80C002010B503480078012801D101F0CBF910BDF80C002070B5084B0446DA8868
:402900009E8800205518B54206D81D68AA182260DA885118D98070BD032070BDAC1000200148008970470000AC100020F0B587B007460D4600208900009006916846FFF774
:40294000DBFF844600285DD1304800990160002117E02E4B88001A680629115406D22C4C0419667882185670628805E0C419203CA67A8218567022891B68C018491C42805C
:40298000C9B2A942E5D300242DE0601CC2B2059025E01E4FA30039689600581840887118039604904E88B04217D938466F46FE80B6464F786E4677710297049F4F800168CD
:4029C000039F5E18767879184E700168764659184E800068029F18184770521CD2B2AA42D7D30598C4B2AC42CFD36046002809D168460699FFF780FF8446002802D1054986
:402A000000980860604607B0F0BD0000FC0C002090330100000D00207047000010B5002809D005494A68002A05D0011F08788000105801F035FA10BDFC0C002010B504464B
:402A4000FFF76EFFC0B2801DA0420CD307484068002808D0A100405801F094F9002801D00470001D10BD002010BD0000FC0C0020F8B516460D460446FFF752FFC0B2801D0D
:402A8000A04203D20020C0430090F8BDB2B2E9B2684601F09DF90099481C03D0024AA000526811500098F8BDFC0C0020F8B50746FFF736FF801DC6B20A49002005460C680B
:402AC0000DE06178002907D06188B94202D32078FFF7B4FF002804D1241D6D1CEDB2B542EFD3F8BDFC0C002010B5002801D0FFF795FF10BD70B506460948002504680BE0C7
:402B00006178002905D062882078121D0023FFF7AFFF241D6D1CEDB2B542F1D370BD0000FC0C0020FFB581B00A9C16002BD000F0F1F80546042826D0214F002C0BD020460E
:402B4000FFF7B4FF2901C919486000281BD022460499FEF704FD1A4928010E5046187481019805707D20029CC000444300F0C0F8009004280AD000F055FAA0420ED800F0E8
:402B800051FA201A06E0FF2005B0F0BD204600F0ADFA0020B08135720020F5E700F042FA074600F0B9FA381B87B23846012100F0EFF800980101024808188781E6E7000040
:402BC000B8100020F8B5060117483418217A042903D0A089002802D018E00020F8BD00F021FA054600F098FA00F0A2F804280DD001010D480F18B88941198DB2002100F02F
:402C0000C7F80020B881284600F070FA6068064D002801D0FFF768FF042020720020A8516081A081D9E70000B8100020FEB500266A46304601232549050169180D7A042DFA
:402C400002D0898900291BD000211154401CC0B20428F0D300246846005D002830D01B482101081841894768056802910021016041600422418102728181002E02D015E02E
:402C80001354E3E700F054F804280ED001010F480818019086890021304600F079F8019800218181304600F021FA0126002D07D038460299A847002F02D03846FFF714FF94
:402CC000641CE4B2042CC6D3FEBD0000B81000200EB5002005216A460090118150810348694600680DF03DFB0EBD0000040D0020074A0020010189180B7A042B02D0898967
:402D0000002903D0401CC0B20428F3D370470000B81000200549002002015218127A042A03D0401CC0B20428F6D37047B810002030B50A4B04200A4C00210A011219157AD4
:402D4000042D06D09289002A03D09A4201D808461346491CC9B20429EFD330BDFFFF0000B81000207047000030B50020074C05460423020111190B72A5504D60401C4D813F
:402D8000C0B28D810428F4D330BD0000B810002030B5094C00231A011219157A042D04D09589002906D02D1895815B1CDBB2042BF1D330BD2D1AF7E7B81000200020704754
:402DC0001CB5002469460C70142001902346054A05480DF0CBFA04480068401C00D1FF2420461CBD3D2E0000040D00203EB5124A0146FF2000230124126800290DD00129A1
:402E000014D0042908D104206946009308814B8110460DF0A6FA80B23EBD6846009304814381694610460DF097FAF4E768460093048143816946EBE7040D002070B54589A6
:402E40000468416800890300FFF7B8FC08280509091E22282628002005F0EEF91EE0022908D0C8B22A4621460BF03EFC2046FFF73BFE13E002202A4621460BF035FC29466B
:402E8000204600F00DF809E000200CF059FF05E02046FFF7CBFE01E0FEF764F9002070BD014B0022DB681847080D002070B5448905680089022803D0032809D0FF2070BD56
:402EC0002246094C0023A46829460120A04708E0FFF7B2FA241DA2B200232946022006F04AF9002070BD0000080D002070470000024800214160018041807047080D0020F0
:402F000070B50C46002186B016460391012802D0022859D116E003A9012006F08CF901281BD1039D324621462846FEF718FB0095287801900220694608814E816846FFF7A9
:402F4000B5FF41E0214D002B686809D0049004A9022006F070F901281DD0022006B070BD002812D0298840182146FEF7F8FA28880024801980B228806988091D884206D1FD
:402F80002C801348FFF792FF03E00320E6E788421AD96C6018E004986860E278A378110219430B4A698000231060E3565360032313815181A1788170E178C1706178417080
:402FC00021780170042028800020C7E7080D0020F81000203EB515460C46022803D004280CD000203EBD0091019002206946088107484A8100680DF0B4F907E00BF074FB17
:40300000044B0022DB6829462046984701203EBD040D0020080D0020014AD16090607047080D0020034801688068081A0A214843000970470411002010B5FEF765F8482264
:4030400004490548FEF78BFA03490120C870002010BD0000AC3301000815002010B5FEF74BF810BD70B5134C2368002B08D0207B1149C20705D04008400020738868A080F3
:4030800070BD88680B4AA18880B29268814203D90A4D691A091802E0814202D2411A5118A160A080A0689842EAD30DF077F900F013F870BD04110020C0102E40FFFF0000AC
:4030C00010B508461946FFF7A7FF10BD704710B5FFF780FF10BD000003480021016041608160C1607047000004110020024610B5FF20002A0CD0FFF7EFFF064C0321207BB4
:403100000843207310010A21FEF7F2F82060002010BD00000411002000B504480A21806848430209FFF7D8FF104600BD041100200248007B8007C00F70470000041100202E
:4031400010B544490868002802DA434B01221A70022290430860414800693E49C00B4031096A08425ED0012000F086FA3B483C497C30FDF72DFF37480E216C30FDF728FF85
:40318000364820218430FDF723FF344814219C30FDF71EFF3148FF21C131A430FDF718FF2E48FF212F31B030FDF712FF2B482D49BC30FDF70DFF29482B49AC30FDF708FF22
:4031C00029492648491CB430FDF702FF23482749B830FDF7FDFE21482549CC30FDF7F8FE1E4824490830FDF7F3FE1C482249A830FDF7EEFE194821498830FDF7E9FE17480E
:403200001F498C30FDF7E4FE14481921C9029030FDF7DEFEFDF7DEFEFDF78AFFC0B2022802D00FE0FF2010BD16491748FDF7D0FE15481649001DFDF7CBFE13480021083043
:40324000FDF7C6FE54200449C043891C0870002010BD000000F02E40180D002000002E4055650000320300002F3F00003102000010520000EC160000FA12000031D00000B6
:403280003AE300009956000080012E40F80F000070B50646581C80B245086D00002408E0304600F0C1F81055000A1119A41C4870A4B2AC42F4D3D80705D0D0182038D15CD3
:4032C000C47FD454C17770BD30B50A4C002100195B1E07E0541864782502545C2C430480891C89B29942F5DB994201D1515C018030BD000000102E4010B5FF2000F0BCF9BD
:403300000F49FF2048700E481021801D41800121417001700A490020C91C4870FFF710FF04000AD100F008F907210648FDF74EFE044807211830FDF749FE204610BD000070
:40334000180D0020CC112E4070B5002405465B1E0AE0284600F068F8010A161971702D1D1055A41CADB2A4B29C42F2DB9C4203D1284600F059F8105570BD000070B50021E5
:403380000A4D5B1E0AE0541864782602545C344346193480001D891C80B289B29942F2DB994202D1515C4019018070BD00102E40F0B50599091FCFB200217E1E0BE05418F2
:4033C00064782502545C2C43164D45192C80001D891C80B289B2B142F1DBFC0712D01C78515C24020F4A0C4381180C809C785D78001D210280B2294384182180001D80B2E4
:40340000D9780CE059781A7809021143054A84182180001DD9789B78090280B2194380180180F0BD00102E40014940180088704700102E4010B50B490020487000F07CF8EF
:40344000002000F03FF9002000F02CF907210648FDF7BCFD044807211830FDF7B7FD002010BD00001B0D0020CC112E4010B50B46062812D006DC01280CD0032801D1FFF7C8
:40348000D9FF10BD0A28FCD00B28FAD105480078107010BDFFF730FF10BD1146184600F02DF910BD1E0D0020F8B5204DAC6A0127A0071F4E002816DA307806280ED1286AB9
:4034C000384328621B480069F903084381B219481030FDF77DFD042000F0CEF8134802212830FDF773FDE00711D0062000F0C4F80F49FF20C91E48707078002802D1686BF8
:4035000038436863094801212830FDF75FFDE0050BD53078042802D1052000F0ADF80348FF2101312830FDF751FDF8BD40F02E401B0D002000002E4010B503212348FDF77C
:4035400047FD0120FDF7D4FD20483038406A204C80076178800F890001431C480C38FDF737FD6078002808D0401E022181401820FDF7AEFFC000083800E0B82081B2154874
:40358000FDF726FD1348032109021438FDF720FD10481149B830FDF71BFD612189010F48FDF716FD0D480321001FFDF711FD0C490C48FDF70DFD0B480B496038FDF708FD84
:4035C000084801218838FDF703FD10BD70F02E401E0D0020D8102E4090890000041E2E40FF0F000058122E40209000000849087806280BD148780749002803D1486B400848
:4036000040004863C86A01221043C862704700001B0D002040F02E4001480078704700001B0D002000B50300FFF7C8F8080D050D0B070507090D012000BD032000BD0420C5
:4036400000BD022000BDFF2000BD0000074A9168D26889B2064B92B2994204D105498A4201D1012100E000210170704780002E4033D000003FE3000010B50446FDF740FD44
:40368000072C01D9FF2C01D102480470FDF734FD10BD00001B0D00200149487070470000180D002010B5064A012805D01921C9021046FDF78DFC10BD1D21C902F8E700006A
:4036C00090002E4010B50A4A141D012808D009491046FDF77DFC08492046FDF779FC10BD04491046891CFDF773FC0349491DF3E788002E4031D000003AE3000070B50C46BD
:403700000546FDF715FDC0B202280E49287804D0FF2810D04C280CD810E0FF2809D10A4AD0680004800F032801D0087807E09069000A553803E00878207070BD4F38207038
:40374000087070BD1A0D002000002E40F0B50122002830D000292ED00424420600D00524792342065B06D21800D0641C034600221EE00C2516466E43104D00277519AF7216
:403780000E4F002ABB51696007D0661EB24209D10B4E86197606760E05E05E06760E8027BE1B00E080269B198919521C2E81D2B2A242DED300221046F0BD00009013002045
:4037C00079020000074900200C2242435218927A012A05D0401CC0B20628F5D3002070470120704790130020F8B50F000446164609D0184D18496868A04202D94018A042B7
:4038000001D38E4201D90120F8BD39462046FDF797FE00281BD0324639462046FDF79FFEF0B200210C224A43521913895668F718A74208D90127A41B1B1B9772834206DADE
:40384000C01A1469C0B2491CC9B20629EAD30020F8BD0000901300207902000010B500F05DF80748054AC16806480C46FDF777FE04492046FFF76AFF10BD0000790200006C
:40388000240D002014110020002070470020054A002902D0012902D002E0506000E0906000207047240D002070B5084C154608460549A26889182A46FDF751FEA06840197C
:4038C000A06028B270BD000014110020240D00203EB50A226946FFF7E7FF044606480A2200686946FDF72CFE002802D00020C0433EBD20463EBD0000240D0020002802D0C4
:40390000044A914201D2FF20704703490A61C8600020704779020000240D0020024800214160816070470000240D002070B5074C15460548626880182A46FFF755FF606842
:403940004019606028B270BD14110020240D002010B503490A220968FFF7E8FF10BD0000240D002010B50F4A002313600E4A13600E4B18600E4801600E49012008600E49AA
:403980000860000290600E490C4808600D4914300860FF381538506000F0BCF800F0CAF9002010BD500D0020380D0020640D0020680D0020540D0020440D0020D81400201A
:4039C000480D00205C0D0020014610B50020002910D0094B1A689C685118A14209D25868196080188A0704D08A07920F891A091D196010BD002010BD380D0020F8B50024F9
:403A0000164E671E321F3D463168136806E01422624310328A58521C1BD0641C9C42F6D36A1C14D02C461422544322460C3288500C214843FFF7C8FF3168002808510AD0C0
:403A400031680020103408517068401C70602846F8BD2546E4E73846F8BD0000480D0020F3B50026F64381B000281BDB1E490968884217D80299002914D01B4F1422044672
:403A80003F1D54432546396810354859401C09D0FDF736FB38682F1F4159C359994203DBFDF72AFB3046FEBD214608310091465801590C20704308180C220299FDF74FFDEF
:403AC0000948761C001D0068C159B14200D100260549009A091D865008684159491C4151FDF70AFB0020FEBD440D0020002803DB07490968884202D90020C043704704499D
:403B00001422091D096850431030085870470000440D0020F0B500200D4A451E0346171F50600FE014260146714314680E1DA3510C461668083433511668083435511468A4
:403B4000401C635039688842ECD30020F0BD0000480D0020F3B50026F64381B0002841DB2349096888423DD8029900293AD0204F142204463F1D54432546396810354859F0
:403B8000401C2FD0FDF7BCFA3868415900292BD0211D009146580C21005971430F46C1190C220298FDF7DBFC11480021001D0068761C00590C34C0190160416081600C48FF
:403BC000001D00680159B14200D100260849009A091D865008684159491E4151FDF78CFA0020FEBD3046FEBDFDF786FAFAE70000440D0020FEB504460D4600201E49089E49
:403C00000860471E009001900290002C11D0486885420ED2002A0CD0002E0AD0642E08D808460C3001681C2068430C18207A002801D03846FEBD0120226020721846FFF7CD
:403C4000DDFE6060401C13D06681A6810A4827610C3067610179A94200D205710021684601810A462846029B00F040F82846FEBD00202072DDE70000500D002038B50124CF
:403C8000009400F039F838BDFEB50027164EFF433D4600240EE01C20316860430818017A002906D04068FFF721FF002801D0254603E0641C3079A042EDDA681C12D01C21B9
:403CC00030684D434419FDF71BFA69466068FFF741FF0546FDF710FA002DD9D1216868468847D5E7FEBD00005C0D002038B50024009400F001F838BD1FB500220C49541E23
:403D00000A60002811DB496888420ED808491C220C31096850430818406801A9FFF7A0FE401C02D0002004B010BD2046FBE70000500D0020F0B50021114A4D1E17461171CF
:403D40000C3F0B46BD6016E008461C2460431668041D355114680646235014680836A3551468361DA353044616680A34335318301468491C255078688142E5D30020F0BD3A
:403D80005C0D002038B500210091002811DB0F49097888420DDA0D4D04010C3529680859002807D0201D0818694600F06FF9002801D0002038BDFDF7A3F928680F34015D79
:403DC000491E0155FDF798F9009838BD6C0D0020F7B582B0002502986E1E06602E48D21C024017462D4A2C4610460C380178106805E02301C358002B0FD0641CE4B28C4243
:403E0000F7D3711C28D03401211D40180191039900F02AF900281FD101E02646F1E71F48016820460C300F521C480399026820460E30115419480399026820460F30115433
:403E40000398784300F0A0F8144900280968085102D00024009011E001251AE00F48016801980818009900F02CF9002801D0012502E00098C0190090641CE4B203988442DE
:403E8000ECD3002D05D10298066004480179491C0171284605B0F0BDFCFF0000780D0020F8B50D4600216A468C461180002839DB23490978884235DA214B04010C331968CC
:403EC0000A59002A2ED020460C300B5A801C0E5C184670438018954224D3854222D2002006E007465F43BF18AF4206D0401CC0B2B042F6D36046002814D0114E271DC819A6
:403F00000C366A46294600F006F900280AD168460088012808D030682946C01900F0D1F8002803D00120F8BD0020F8BDFDF7E8F830680F34015D491C0155FDF7DDF8F3E74D
:403F40006C0D0020F8B50F46002400F031F8002817D10C4900220B460C334A600EE021011D680E466A501D680C36AA53B61C1D680F31AA551D68641C6A54E4B2BC42EED393
:403F80001A71F8BD6C0D002000280BD0C01C074A81085068890053884118994203D893685160181870470020704700006C0D0020F8B5064600200F4D009029700C0121462F
:403FC0006846FEF799FC00280CD129460C3100980860301B001F84B221466846FEF78CFC002801D0FF20F8BD6C800098A8600020F8BD00006C0D0020F8B5002827DB1949A6
:404000000978884223DA174C05010C342168485900281CD028460C30085A009028460E300E5C401C0E5420682F1DC01900F064F800280CD12068002445590EE009482946EB
:404040000C300068C01900F03CF8002801D00120F8BD00982D18641CE4B2B442EED30020F8BD00006C0D002030B50D4604000BD0A800FFF789FF6060002805D00020257009
:40408000C0436080002030BD012030BD70B50D46040005D0002D03D00220205E002801DA012070BDFDF72CF80221615E60688900405828606088401E6080FDF71DF8002006
:4040C00070BD70B50D46040007D0002D05D002212078615E401E814201DB012070BDFDF70FF86088401C00B26080616880000D50FDF702F8002070BD10B5040009D022788B
:4041000000216068FDF734FA0020C0436080002010BD012010BDF0B500231D46002802D00224045F0AE00120F0BD46689F00F6598E4201D1012503E05B1CDBB29C42F4DA39
:4041400015700020F0BD00000148007870470000800D00207CB505460024FEF76DF9A8796946087000A8062229460130FDF7F7F90021684604F026FB0C2804D0072804D042
:404180001F2804D004E0022402E0042400E0272420467CBD10B500F031F9FFF73DFAFFF741FA10BD70B504460025FEF745F9002C06D0A079012803D8214602F06DFB00E075
:4041C0000125284670BD01460120002902D05020088000207047000001460120002905D003485422007850430880002070470000820D002010B502460D49FE20487003242C
:4042000010460CF0D1FB002810D10CF075FB00280CD105F06DF8002808D100F0DFFA002804D104F053FD002800D10024204610BD800D002070B50025044600280ED0A079D1
:4042400001280BD8FEF7F8F8A0790028204602D002F0B0FE03E002F085FE00E00125284670BD0000014610B50120002904D006220248FDF774F9002010BD0000840D0020A0
:4042800001460120002903D0087802490870002070470000820D002038B504460120002C20D0617801291DD800290BD0FF25E535FEF7C2F80C4828180088C0B22070072827
:4042C00003D00EE0FF25CD35F2E70020694608706846FFF7BBF969460878012801D108202070002038BD000000102E40F8B504460120002C26D06178012902D92278092A05
:4043000020D8002905D0FF25E5352078092803D004E0FF25CD35F8E708202070FEF78CF82078114F114E08280DD00020FFF7CAF970780128207810D00D4969180880FE2050
:4043400070700020F8BD0120FFF7BCF90720B8810549203188800120F2E7B8810248217820308180EBE70000C0112E40800D002000102E4070B50E46050001D0002400E0BF
:404380000C4C002C11D0E28A500609D5D107C90F022002F0A3FEE08A40218843E08204E0D107C90F012002F099FE3146284602F081FB70BD70150020F8B5054600200446D6
:4043C0000D4E009013E022466946284600F01EFF0098002801D00CF0C9FAA878214602F0CBF9A878214602F0B9F9641CE4B2308AA042E8D8F8BD00002816002038B51E4CB9
:40440000FFF70AF9042813D0052811D0062812D003282AD007280AD100206946087002460120FFF723F8FFF7F7F80128FBD138BD00F048FB38BD02F0EDF900F043FB02F077
:404440004DFA8007800F0228F4D10C4841880029F0D05B21095D0029ECD101210170A07D0140022002F03AFE38BD02F0D7F90120FFF702F938BD000070150020900D0020C5
:40448000F8B50646002402F097FE0546304602F0ADFE03460A480021068A0DE001228A401046174628401F40002803D0002F01D1224394B2491CC9B28E42EFD82046F8BD21
:4044C000281600201CB50020694648706846FFF7E3FE01AA69460A20FEF7C8FF6946042008561CBD10B50C4601F062FA002809D00179002906D0C1788078224602F060FB73
:40450000002010BD022010BD0148007870470000481500204030C07E002800D00120704700B500F001F800BD8C2148430749084A40186030417F491CC9B24177D289914289
:4045400001D300214177C8B270470000501500202816002013B501F02BFA04000BD001F0C8FD002807D0214601AA0A310620FEF77DFF00201CBD02201CBD000010B50C4619
:4045800001F016FA00280AD001F0B3FD002806D0224604490A20FEF769FF002010BD022010BD000031150020F3B581B0074601460026029802F0F8FD0446002F01D0002558
:4045C00000E0154D002D21D0284601F027FA032C04D13946029802F043FE06463846029902F0BCF8032C06D0002C10D00121384601F01AFB03E03146384603F02DF828466B
:4046000001F0A0FF0221284601F0B6FFFEBD3846029902F0A3F8FEBD7015002010B5044603F064FC002801D00C2010BD2078611C02F0C8FBFF2801D01F2010BD02F00EFCD4
:40464000FF280AD02178621C02F016F8044821780068026B601C904710BD072010BD0000A80D002010B503F041FC002801D00C2010BD02F089FB03480068C06A804700205E
:4046800010BD0000A80D002070B50D46044610210CF0ACF81021601806460CF0A7F8334610221946204603F04FFC102130460CF09DF802202870204604F060FA70BD0000B4
:4046C000F8B504464078217802028006870FE0781143A67809050002090D0643084601F067F900210546F2B2002812D0002C10D0022F0ED0032F0CD0002A0AD00279092A85
:4047000007D0002A05D0134A5A23527E1B5C9A4207D82889002104F066F920460CF026F9FF21002914D10C48224600682946436930469847C0B2FF280AD128464030817E0E
:40474000F2B2491C8176FF232146284600F0DDF8F8BD000008150020C00D00200020704710B5044603F0C2FB002801D00C2010BD2078611C02F026FBFF2808D002F05EFAA5
:40478000044821780068426B601C904710BD1F2010BD0000A80D002010B504F097FA00F057F9002010BD10B5044600786178E2780843A178114308432179084361790843C0
:4047C00005D003F085FB002803D00C2010BD122010BD204602F0EEFB002010BD10B5FCF7A7FC02F00BFD044803F0ECFB02F030FA012000F003F810BD18150020F1B586B0B7
:4048000003A8009005A8019025489F22817A114081726846FDF72AFE00283FD169460989C90705D01F4806990068C2686846904769460989890706D500282FD11A480068EF
:40484000816A06988847002828D1184E0025757075737571F575357675767575B570F570B5713746F5730120BC3738731F20F880FF2130467972A0300175457500F056FACB
:4048800000242046069901F0DFFB002803D1641C2406240EF5D0FD72BD72B57307B0F0BD08150020C00D0020A80D00205015002070B505460E46084602F07EFC044630467B
:4048C00002F094FC0121A9400A46224001400A4301D0012070BD002070BD10B50446084602F084FC0121A140014201D0012010BD002010BD10B5FEF78FFE032804D101F086
:404900008DFF0120FEF7B8FE10BDFEB51C4616460F46054601F016FEA878FFF701FE02460190334639460094284600F00DF8002808D1A8780199FFF71DFDFF2C02D1384618
:404940000CF014F8FEBD0000FFB585B005460E980C46FF2810D02B49C00009680A5840180179C0795278814201D9012601E09006860F6846038108E06078A1788006860F6F
:40498000E0780002014368460181284601F0BCFB070007D021462846079A00F0CBFB384609B0F0BD304600F079FC04AE0346039002AA29460096204600F005FB3C20405DBC
:4049C000002818D0284601F09FFB012813D0684600890096C0B20190A878231DFF22079902F01CF868460089039BC2B2A878079902F05CFBD3E7684600890021C0B2009144
:404A0000E9E70000BC0D0020F8B5104F002500242846FFF735FD060012D00EE03046E040C007C00F07D02146284601F08FFE21462846FFF7B9FD641CE4B2388AA042EDD8A6
:404A40006D1C2D062D0EE2D0F8BD00002816002010B502F0FDF80020FFF7D0FE0CF01CF8002010BDF8B5002400F094F80123012800D10124104F00203E46203604250822B1
:404A800003E0002801D0002100E031460979002907D001290BD002290BD0114681402143CCB2401C0006000EEBD07C70F8BD1C43F7E72C43F5E700005015002010B5FFF787
:404AC000D1FF10BD10B5FBF774FF0446FEF7A4FD012809D0FEF7A0FD022805D0FCF75EF82046FBF76AFFEEE72046FBF766FF10BD10B50B4681791943817103D08078114693
:404B000002F0A2FA10BD10B582798A43827102D1807802F0ADFA10BD30B50C4C0220A28A0B4B9978002901D0022906D11D785B78EB18282B01D9032002E0032900D10120C0
:404B40005105490DC0020143A18230BDC0112E408B0D002000B500F023F8002807D0012805D0032801D0042801D0002000BD012000BD014600B50020C90701D000F00AF85C
:404B800000BD014600B50020C90701D000F002F800BD000001480088000A704720102E400448008B410501D5042070474007800F7047000000102E4038B50446000610D5A9
:404BC000FFF7EEFF01280CD1684601F02DFE6846007800F0B3FA012001F01CFD0220FFF76DFF0348006801692046884738BD0000A80D002010B5034A0178117002F046F937
:404C0000002010BD8B0D002070B50446FFF7C2FF002801D00C2070BDA27B01211F48002A827801D00A4301E05208520082706279012A14D0C17849084900C170184D28680D
:404C4000016820468847207901280CD06188208802F07CFF2080207904280FD015E0C2780A43C270EAE72868C168E01D8847E01D02F08CF90B48808C208006E02868C168A0
:404C8000E01D8847E01D02F081F9074920798870204602F009F9002070BD000050150020A80D0020081500208B0D002008B50178FFF770FF814201D10C2008BD002914D0BA
:404CC000072069460870FFF745FF012807D10121684600F08BF8012801D0092008BDFFF71BFF02F015F9012011E0FFF733FF012806D1684601F098FD6846007800F052FA20
:404D000002F0FCF8FFF746FF0028FBD10220FFF7D5FE002008BD000010B5034A0178517002F072F9002010BD8B0D002038B568460BF0B2FD002801D01F2038BD0121009814
:404D4000C90201804180002505714571857107214173857302F0A8F8009C202200212046FCF706FC25702A460021601CFCF700FC204602F08BF8204602F046F900980BF089
:404D8000F5FD042200210248FCF7F2FB002038BD8B0D00200346084800B5834209D8184600F006FE002804D00089984201D1012000BD002000BD0000FF0E0000074A917929
:404DC000491C8906890E917138220A4092014907090E1143084302490840704750150020FF0E0000C006C00E70470000F8B507460E4600240D4803E0002C01D0002500E016
:404E000005462979002905D0641C2406240EF3D00020F8BD0021204601F016F92E712046FFF7CCFF28813C700120F8BD7015002010B503F0BDF80222002100F003F801F068
:404E4000B3FE10BD10B5094B40074907000F090F185A595A40185043C0086421FCF748FA002800D1012080B210BD0000F4330100F7B53D20405C88B015460C46002802D086
:404E80002878042802D200200BB0F0BD6946087200262046FFF73EFB012800D00126204603A938300191009023460327A17E34333246206A03F0A0F802A8089900900B4658
:404EC000019120463A4603A9243003F01DF802466846007A2870204601F0A2F81046D3E7FFB587B00C4605461078694608723D20005D1746002826D000262046FFF70AFB34
:404F0000012800D00126204603A93830019100902346A17E34333246206A03F06DF802A80090291D019120462B1D03A924300A9A02F0EAFF02006846007A388002D1204612
:404F400001F06EF810460BB0F0BDF0B505463C20405C89B016460C4600280CD0307869460873002806D000272046FFF7D3FA012803D003E01F2009B0F0BD012703200890C2
:404F8000204604A93830019100902346E17E34333A46E06903F030F86846007B03A928180290009120462B46019504A92430089A02F0DEFF02466846007B3070204601F0C2
:404FC00039F81046D7E7FFB505463C20405C89B016460C46002810D0084601F095F801280BD0308869468883002809D000272046FFF790FA012805D005E000200DB0F0BDC9
:405000000220FBE70127204603A93830019100902346E17E34333A46E06902F0EDFF291D2B1D07A8129A6D4607C5204603A924300C9A02F09DFF02466846808B30802046B9
:4050400000F0F8FF1046D9E770B50D460446FFF761FA01280AD0E87AA97A00020143A07801F09EFC012808D0002070BD00222421204602F0BDFC242070BD28214C2001556D
:40508000204600F0A3FB282070BD0000002801D0002000E003484030C07F012800D0002070470000701500200146002049070ED50021084B03E0002901D0002200E01A46D2
:4050C0001279022A04D0491C0906090EF3D0704701207047701500200146002049070ED50021084B03E0002901D0002200E01A461279022A04D0491C0906090EF3D07047C6
:40510000012070477015002010B5044680346068002803D00BF03EFC0020606010BD4030417070474030817070474030017070470171704792001018C166704770B53C25BB
:4051400001F080F9040004D020460021433001F0DBFBFF222946204600F0D4FB002C02D0A07801F0F1F870BD10B5002801D0002000E00348002802D0008903F07BFC10BD97
:405180007015002010B5002801D0002000E00448002804D00179072901D100F047F810BD7015002010B501F04DF9002802D0807801F0CAF810BD00207047000070B5054672
:4051C000008A00281ED01049F122897A1140C90618D5294640314A8A098A521C4A4392B2D10800D10121540801E0621A94B2A042FBD9FEF7A9FF012804D1298AA8782246B6
:4052000001F094FC70BD00000815002010B50023054C0B60248A944204D992001018C26E0A60C36610BD00002816002038B5044600200090A079002814D14020015D0529DD
:4052400001D00E290ED168460BF036FB002809D12046009902F0AAFB03481021C28A2046FFF746FC38BD00000815002010B50B4604460146184602F027F8002802D02046C7
:405280000BF07EFB10BD13B5044601AA11460620FEF7ECF86846818861811CBD002800D10220704770470000F8B504462346401D543300909A1EA078911E01F0D1FA254625
:4052C0004035A88A298A8000FCF712F8401E81B2688A884203D96982A07801F039FF20460021433001F010FB27480088E88102F05FFEE989891C8AB26179FFF7A3FD01F029
:4053000053FC02F055FE2A8A6179FFF79BFD074601F03EFC688A002806D01C49088A032212021043088202E0002001F005FF1748803801886E8A002E0CD030464843144951
:40534000FCF7C6F80004000C01D0401C80B21149488002E00F4800214180288A704381B2A07801F05FFEFF2228374932B9B21346204602F0EFFBE98AA07801F0D3FDA0786D
:4053800001F00CFAF8BD000080102E40E0112E4071020000900D00207FB504468034616805460E46183108226846FCF7D8F831462031082202A8FCF7D2F8102168460BF003
:4053C00015FA6068102108300BF010FA60682B46083024331022694602F0B6FD7FBD10B504460821FFF78FFB10212046FFF78BFB207905281FD006281DD008281AD121897E
:40540000002003F0AFFA072020712046FFF782F8014620464030012913D00E21017000210176204600F0A2FF2046FFF76DFE2046FFF7C4FE10BD20890122002103F076FAC7
:40544000E1E70521EAE70000FFB581B01F4604460821FFF758FB10212046FFF754FB2079082803D0092804D0042203E00422012501E009220025204600F032FE2646002052
:405480004036307022712046FFF73EFE0398002D02D0012808D00BE001280AD120890022029903F043FA04E02189029803F05AFA012700203076012F04D0204600F056FF7F
:4054C00005B0F0BD02983073204602F0BDFA054605480121C28A2046FFF70AFB002DEFD109202071ECE700000815002070B50C460546FFF70FF8012809D108212846FFF791
:4055000002FB0023012221462846FFF79DFF70BD10B5044600F0E4FD2046FFF7F5FD00214034217010BD70B505461A24FEF7F2FF012809D108212846FFF7E5FA002301222A
:4055400021462846FFF780FF70BD0000F8B50446002000900E4668460BF0AEF9002801D00D20F8BD8420005908212030009D00F01AFA20460421383000F015FA002E02D184
:40558000204600F0E9FD2946204602F09EF90E480821C28A2046FFF7ABFA204600F057FF25464035002808D0204600F023F8002801D0092028700020F8BD082028702046D3
:4055C00000F0C0FFF7E7000008150020014610B540310A460978082906D0092907D00A2901D100F091F810BD0B20107010BD00F001F810BD70B50446007925464035052815
:4056000005D0062803D008280FD00C2070BD03220621204602F0ECF90D480821C28A2046FFF766FA1120287010E006202873204602F00AFA0646AA8A0A2042430121204690
:40564000FFF756FA002E01D109202071002070BD0815002038B504460020009068460BF02BF9002801D00D2038BD2046009D00F0B1F908202071204600F06EFD29462046E5
:4056800002F056F900213D2001550F2040210855204600F057FF002038BD00B5024600F01FFD10214032117000BD10B50446FEF731FF012809D04020005D112805D1002318
:4056C0001A4606212046FFF7BFFE10BD10B5FFF786FE10BD38B504460021684600910BF0EBF800280CD12046009902F0A2F905480821C28A2046FFF7FBF90D2040342070E8
:4057000038BD00000815002038B504460021684600910BF0D1F8002801D00D2038BD2046009902F07BF905480821C28A2046FFF7DFF90C2040342070002038BD08150020E4
:4057400000787047F8B50025002801D0002400E01A4C002C28D0204600F0CBFC002823D0207903281CD005281CD026464036B18AA07801F061FCB078012815D1002120465F
:4057800001F0BFFD274680373868002802D00BF001F93D600020B0702079072805D007E0042000E006202071F8BD2046FFF706FD0221204600F0E0FEF8BD000070150020A8
:4057C00010B54C22115400F04CF810BD10B50446FF21FFF798F909202071A07801F052FC10BD000038B5FF216A461180002801D0002400E0084C002C0DD011460620FDF763
:4058000035FE684601882046FFF73DFD03480068C1692046884738BD70150020C00D002010B504468079002809D022214C200155FF212046FFF767F9204600F012F810BDB8
:4058400010B5037902464032002B03D01173092B02D003E0002100E02221117300F001F810BDFEB504460089002700902781207926464036002817D0012815D002280AD1C2
:4058800012E002AA01A9204601F00CFD002807D101980BF075F8204601F02CFD0028F0D02046FEF789FDB776254680352868002802D00BF06FF82F606868002802D00BF069
:4058C00069F86F60317B002919D0009800F064F8A078002100F076FF2046FFF7A9FAA07801F048F8A07800F02FFDFF212046FFF70AF90B20FFF7E2F800F068FCFEBD1F21F3
:405900003173E2E7F8B517460E46054602F04CFB04003CD020460C3000F0E6FF2046062200211830FBF724FE2046062200211230FBF71EFE1648224600683946436A2846BF
:405940009847074626702846FEF7E4FD012148406070002D10D02889608028464030C1782171002E0FD169796171018AE180418A2181808A608106E00648008BC005C00F07
:405980002071002060803946204602F06EFFF8BDA80D002000102E400A4610B50146002003F080F810BD10B50AF0FCFC10BD000000B50146FFF716FA002801D0002000E0D7
:4059C0000348002802D002898A4200D0002000BD7015002038B5044680346068002806D168460AF079FF002801D100986060606838BD000010B5014600F086FB0128887832
:405A000002D0FEF791FD10BD8C214843024940186030007F10BD00005015002070B5054604464035A87F012811D1A1788C20084A484380186030067F3046FEF739FF00288D
:405A400005D10220A877A078314601F03DF870BD5015002010B50C4CA07A002813D0FEF7D3FF0A48027F417F408B00F0B7FB012809D10020A07200F0EDFE05498989090B1B
:405A800001D000F03BFA10BD0C16002050150020A0102E4070477047490510B5490F0B00FCF78CFE060704080C0C0F073E21FFF787FE10BD0821FFF7C3FE10BDFFF7D1FE7D
:405AC00010BDFFF7ADFE10BDF8B507460025002D01D0002600E0204E00F08AFE3046403044890021418100F08DFE304600F001FB01282BD1A00702D52846FFF723FEE006E1
:405B000002D52846FFF76EFEA00601D5FEF77CFF600601D500F014FB200602D5284600F01DF8600702D5284600F02CFA380402D52846FFF727FB780402D52846FFF714FB06
:405B4000E00703D021463046FFF7A6FF6D1C2D062D0EBCD0F8BD000070150020F8B5002801D0002400E0284C002C4BD025464035A878012846D1FF278820493700593E4646
:405B8000002805D02149897A890601D5878AC68A2046FEF7BFFC012834D002F009FA2A8A6179FFF74FF9009000F0F2FF00983346283081B23A46204601F0CCFFE98AA07877
:405BC00001F0B0F912480188688A124E002810D048431149FBF77CFC0004000C01D0401C80B27080A07DC107C90F002001F076FA01E000207080288A698A484381B2A07876
:405C000001F010FAF8BD0000701500200815002060112E40900D0020710200000149096809680847C00D002070B50D460026194A0146002801D0002401E014462034002C3B
:405C400026D0204600F060FA01280AD18C20484380186030007FFEF72BFE002801D101F073FE0D48006881692046884700280CD020464030817EA94202D3491B817600E072
:405C800086762089294602F0AEFE204600F05AFC70BD000050150020C00D002070B503460088FFF785FE040013D000F022FA00280FD02079092819D025469978403529733E
:405CC000204601F0C1FE0646A878012803D0AA8A02E0022070BDEA880A20424301212046FEF706FF002E01D109202071002070BD0EB5002217216B460292198100905A81B0
:405D00000120029B00990AF0E5FE0EBDF8B518480024807A002822D1164E0025B089000B22E0204600F000FE1249A039401807882A462146384600F051FA012810D00E48F1
:405D40000122478305770A4944778A72002D01D0002000E02030002801D000F0F3FBF8BDB089000B641CE4B20028DAD1F8BD00000C160020A0102E405015002010B50088C2
:405D8000FFF716FE002809D0014640310C460978082905D00B2903D00C2010BD022010BDFFF728FC002801D009202070002010BD70B503460088FFF7FBFD040008D0254674
:405DC00040352878082805D00B2803D00C2070BD022070BD8420005910220830991CFBF7BEFB2046FFF7D8FA2878082804D02046FFF78AFC002801D00A202870204600F04F
:405E0000A1FB002070BD000010B50C46002121700088FFF7CDFD03000BD000F06AF9002807D00948F121807A0840C00603D4112010BD022010BD022020701A8A18890021F1
:405E400002F04CFE002010BD08150020F8B50F46002100910088FFF7ABFD040012D000F048F900280ED0E079410641D4617E02264A07002A08DB8907402500291ADA28432E
:405E8000E07135E00220F8BD02F08EF80021017021894180A1898180217E4170E189C1803E7005460178134802F0F2FA284602F0B9FD1DE0204600F02DF9012806D0684623
:405EC0000AF0FAFC002803D00720F8BD2A20F8BDE07900992843E071204601F0DFFD607E0421304360760448C28A2046FEF700FE0020F8BD1D040000081500203EB5002276
:405F00000F236C460292238100910190628169460EC900200AF0DEFD3EBD0000F8B50F46054600F08FFA040025D003202071254600264035EE76E6702046FFF7B5F900F09D
:405F4000DDFF0920FEF7BAFDA07800F001FD0121204600F011FB2E706E70AE703A4600212046FFF7CFFC0649887B401C8873A078FFF754FEF8BD284601F084F8F8BD000036
:405F80005015002010B5002801D0002000E0094800280DD0014640310A464978022901D100215170807DC107C90F002001F096F810BD00007015002070B503460D460088A9
:405FC000FFF7F6FC04000BD000F093F8002807D01248F121807A0840C00603D4112070BD022070BD20464030418A008A491C41430804C10C5888884201D2122070BD2082FD
:406000002079072802D12046FFF7D8F8022028702089002102F08AFD002070BD08150020016A491C016204D1817E491C4906490E81767047C169491CC16104D1C17E491C28
:406040004906490EC1767047F0B5074687B003A8009005A800260D460190002F01D0002400E01B4C002C05D06846FCF7FFF9002803D00BE0022007B0F0BD68460089C00702
:4060800004D18C2200212046FBF772FA114829460068826820469047050016D1A77066762746267140373E70204600F019F8204601F01CF9084820820848BE77807AF121C3
:4060C000084000D001202075E682E8B2D3E7000070150020C00D0020B80B000008150020002101628176C161C17620300177417770470079002805D0012803D0022801D00C
:4061000001207047002070474030807F002800D00120704740300078002807D0012805D0052803D00E2801D0012070470020704710B5807801F05AF8002800D0012010BDF0
:4061400010B500F087FB03498989090B01D0FFF7D5FE10BDA0102E4070B5054604464035A87F002825D1FF206075A0788C21154A484380186030417F8C23491CC9B24177AB
:40618000A0785843104B8018DB896030994201D300214177A0788C21484380186030467F0677A1783046FEF783FB002802D00120A87770BD0220A877A078314600F084FC5A
:4061C00070BD000050150020281600200020401C0006000EFBD0002070470000F0B515468207920F85B0000A02926A469080002D01D0002400E0524C002C28D0084600F09E
:4062000093FB07466846808800280BD00298012843D0022841D003280BD03D20005D012870D087E04748381801882046FFF72BF880E00020029002A80AF01EFB002807D074
:406240003D20005D012878D12046FFF7E9FE74E06846029E8388324600213846FDF718F83848381801882046FFF70DF8284600F0A1FA01AA21463046FEF7FAFD002806D0C2
:4062800030460AF069FB3D204C21085528E0F5773146204601F090F94FE0002000902089039068460AF0D8FA002802D0002005B0F0BD6846009E8388321D00213846FCF7CF
:4062C000E7FF2048381801882046FEF7DCFF284600F070FA25464035287E00280CD103E02046FFF773FA28E001AA21463046029BFEF7F6FD002806D030460AF023FB3D2044
:406300002873EDE713E00298FEF7CCFF01460398307003980901000A0843707068468088B070000AF0703046FFF7E2FC05E02046FFF776FE284600F03DFA0120B7E70000B2
:406340007015002000102E4010B5074A917B002901D0491E91730021FFF776FE002801D0002010BD012010BD50150020F8B5074606464037B87F00282DD0B0788C21009011
:406380004843234945186035287F0099FEF7A5FA01281ED0287F401CC4B21E48C089A04200D800240020B877FF276F772F77A87702460146009800F0F3FC717DFF2903D0F4
:4063C000304600F054FF777501F0BEFA0025114F19E00320B877F8BD00200090224669463046FEF713FF0099002904D0FF231A463046FEF78AFA641CF889E4B2A04200D82E
:4064000000246D1CEDB2F889A842E5D8F8BD0000501500202816002010B502460021084B03E0002901D0002000E018460479944204D0491C0906090EF3D0002010BD000032
:406440007015002000B50120FFF7E6FF00BD10B5044601F0A9FD2189018080346168416061682831816002F097FA10BDF7B50646087982B00C46092807D0A078F0770846F5
:40648000FFF742FE012806D010E030460AF078FA022005B0F0BDA1788C20294A484380186030007FFEF704FA012810D0A078FEF7EDFD01280BD037780121304601F0F0F9CF
:4064C00025462035062F38D00B2F0FD107E06846027C21463046FEF7C9FE0D20D9E72046FEF718F8012801D1002028772046FFF781FA054604AA21463046FEF726FD0120E1
:406500005F2108556946097C002001910090A07833463A46294600F081FA69460A7CA0780323294600F0C2FDA0782946FDF722FF30460AF025FA0020ABE70120D5E70000D2
:406540005015002010B502464032937F0021002B03D1927E002A00D00121064A927A002A00D000210279092A00D10121807800F0D5FD10BD0C16002070B50C460546FDF722
:40658000C9FF00280BD1012C06D92879092806D02846FFF7CDFD0446002C02D004E0012402E0A87DC007FAD1A87DC107C90F204600F094FD70BD0000012807D0082804D165
:4065C00004480282034808300180704701488038FAE70000A0102E40014908817047000000102E4010B50446FF20F130012C01D1FF20D530002200F0C3FD044A108A04498F
:4066000080B2A0430880108210BD000000102E40940D0020034B198A034A89B2814311801982704700102E40940D002010B50446012802D0082C07D102E0FF20D53001E0C3
:40664000FF20F13000F094FD0348018A034A89B221431180018210BD00102E40940D0020034B198A034A89B2014311801982704700102E40940D0020F8B505460120A84097
:4066800086B214460F46012231467C2000F078FD3A463146782000F073FD6078267800020643E078A2780002024360792379000203430C2045430D208001054928184418E6
:4066C0002680001D44182280001D40180380F8BD00102E40CB065B0E0343480901021943D00108430121C902084301490881704780142E404278037812021343084A138218
:40670000C37880781B021843908248780B78000203431383C8788978000201439183704700142E40024A1080000C90801181704700142E40044A002180180288491C89B2B3
:406740001029FAD37047000000102E40024A10820148803081817047A0102E4010B5054A1082084600F030FD024A0021A03A8018018010BDA0102E4010B50B46044600F084
:4067800005F819462046FFF7E1FF10BD024A10820148803001817047A0102E4010B504490882FF20002220211D3000F0E9FC10BDA0102E40000202494D3008807047000012
:4067C00000102E4010B5084B074C0202A03B0029208202D075321A8010BD04490020088088807632F7E70000A0102E40201A2E4000B5034908884880FFF70CFF00BD0000C6
:40680000940D002000B502484088FFF729FF00BD940D002010B5FCF7E9FE10BD014952200880704700102E4000210170704700000748808806492039098B884201D8081AAE
:4068400003E00022D243101A401880B27047000020112E400148008AC0B27047A0102E4070B5084C049D2082074804890548603006880E8001891180808818806007400FD8
:40688000287070BDA0102E40E0112E400148008970470000C0102E4000280FD00D4A108B0870000A4870908B8870000AC8700948203000880871000A48717047064A108843
:4068C0000870000A487090888870000AC8701089F0E7000040102E40C0112E400148008A70470000001A2E40064B1A8999891B8A0270120A42708170090AC1700371190AC6
:406900004171704760102E40012904D00549098BC90B017070470349403109898907C90FF7E7000000102E40014840897047000028160020044A10820448028980894843AF
:40694000101880B270470000A0102E40281600208C21074B414300B5C918FF2260314A770A7700228A77114600F01AFA00BD0000501500208C225043074A10B58018FF21AE
:40698000603041770177002181770448418EFF201D3000F0EDFB10BD501500200815002000B5044A1082034880308088022200F003F800BDA0102E4010B50023884201D803
:4069C000081A03E00024E443201A4018044980B2884201D8824200D90123184610BD0000FF7F000070B55478157824022543D4788823260294783443567912793602324374
:406A0000002900D09823044908820348A038181805808480028170BDA0102E40FFB581B014460D4607460A9E0B9BFFF783FF002E0AD0009333460021049AFCF7B9FC0548B4
:406A40004019C45505B0F0BD0021049AFCF796FCF5E70000980D002070B502460448054D808808242C800B460021FCF787FC70BD28160020A0142E4010B521240246640126
:406A8000044953200880102300212046FCF776FC10BD000000102E40417802780902044B0A431A83C1788078090208439883704760142E40034A10828020014301488030B6
:406AC00001817047A0102E40054A1082044A6032908B0009000108439115084390837047A0102E4030B500210F4B0A46012809D0032802D005280AD107E040211981022179
:406B00000A2204E004210C2201E004210D221882054C20342088C0B205460D42FAD022800021198230BD000080142E4010B504460748048207480180828003218903082025
:406B4000FFF774FD200202497530A039088010BDA0102E40201A2E40054A1082044A60321183000202494B30A039088070470000A0102E40054A491E1082044A6032118399
:406B8000000202494C30A03908807047A0102E400349884200D908460249088070470000FF0F000060112E400349884200D908460249888070470000FF0F000060112E40EE
:406BC0008823002900D09823084908820748A038191808881070000A507088889070000AD07008891071000A50717047A0102E4010B51446024606480B46C0880021FCF7BB
:406C0000A3FB012C02D103495420088010BD00002816002000102E40064A11880170090A417091888170090AC1700349542008807047000080142E4000102E4001218140F7
:406C400010B589B200227C2000F09AFA10BD0000FEB5FF210120FFF7C5FCFF210820FFF7C1FC3020FFF7D6FC3F48802101803F483F4D00784007400F02286FD001286BD1AF
:406C800000202880002211460320FCF7EFFB394E3949B08D8882384F002420373248A0300482308F38822046FFF764FE641C2406240EF3D0B08F38832E48103000F052F9B0
:406CC000716930690191009069464879C021084369464871684600F06DF900F055F82548214C40304188A03421838188A1831E49C088C0318880708E38802048002606828E
:406D00003920FFF7ADFC184F532038801C490720088354203880E020FFF70CFDE820FFF709FDF020FFF706FD0020FEF781F813488682282101838015A0810F484030868138
:406D40005B203880094800784007400F022807D0012801D10B482880FEBDFFE7032090E70848C01CF7E7000000102E4028160020001F2E4008150020C0112E40001A2E40D8
:406D800080142E40E0230000044800218183018302497420603908807047000060102E40074B1882064B6033988B00090001084399158843002A01D11021484098837047FC
:406DC000A0102E40F3B50D2284B0920100924A780B78120213430393CA788B78120213434A790979FF20120211431A4A8C46918B9E460291118B01911649742260390A8076
:406E0000154900220F7821E00121124B9140009C603BE3181D8889B21C881B88039E6E407546654064462E435C4026430CD1029B194209D00199D140CB070499DB0F8B4253
:406E400002D1104606B0F0BD521CD2B29742DBD8F8E7000060102E404815002030B50949FF208C8B084A00210125137805E02A468A40224204D0491CC9B28B42F7D830BD7D
:406E8000084630BD60102E404815002010B50446E020FFF74FFC20782246401CC3B20021E020FCF711FA10BD42790021012A02D901214171090342790A430179042914D0DA
:406EC00049001143827B032A01D8D2001143427B52010A43817909021143012252031143054A118300889083704711460122920211430222E5E7000000102E4000B501206F
:406F0000FFF788FB01494120088000BD00102E4000B50120FFF7A4FB01494020088000BD00102E40024A10820148603081817047A0102E4010B5044C20820448818002817D
:406F400083815143018210BDA0102E40A0132E40034B1882024820388180028070470000A0102E404178027809020A4306490A80C2788378120213438B80427900791202B2
:406F80001043088170470000C0112E404178027809020A4306490A81C2788378120213438B81427900791202104308827047000060102E40417802780902084B0A431A83BA
:406FC000C178827809020A439A8341790079090208430249203108807047000040102E404178027809020A4306498A80C2788378120213430B814279007912021043888114
:4070000070470000001F2E4010B50446E820FFF791FB20782246401CC3B20021E820FCF753F910BD024A10820248818370470000A0102E40001A2E40024A1082014860302D
:4070400081807047A0102E4010B5044688000521FAF74EF904490C8204498880200202497230A039088010BDA0102E40001A2E4003490882000202497330A0390880704754
:40708000A0102E4003490882000202497030A03908807047A0102E4003490882000202497130A03908807047A0102E40F8B505461C4617460E46084600F086F8054AB900F0
:4070C00021431582034AA03A80180180024880194455F8BDA0102E409D0D002030B50E4C238A01251A46012804D0022804D000290BD00CE02A430AE0002908D12A43228275
:407100005008400020821A4601E05A0852009A4200D0228230BD0000001A2E40054A1082044A6032908B4023984389010143918370470000A0102E40044A118A0223002854
:4071400001D0194300E0994311827047001A2E4000B5064A1082054860300181002901D0012000E00020FFF7E7FF00BDA0102E40024A801802880A430280704700102E401A
:4071800070B5084BC5182C880023080003D104E040085B1C9BB2C607FAD08C439A4022432A8070BD00102E40024A1018405C8007800F70479D0D0020024908820148803068
:4071C00080897047A0102E408000FF3041307047044B02461B8AFF208B4202D902484018805C704728160020980D0020024908820148803000897047A0102E4017490246AB
:407200000B680020002B08D10A605207520F012A04D0022A10D0086012207047112292018A80CA80032252020A810122D2024A8140228A8105220DE0092252028A80CA8003
