:400000000040002011000000D9030000D903000008B500F0E3F9C046F8B51B4C1223236000F064FB194800F057FA012000F07EFB0C2000F061FA164E8027FF053760154A45
:40004000116802230B431360134A144B1A60144A136808218B431360FA20C00000F0C6FA104800F0B9FA802212060F4B1A6000250E4B1D6008200E4900F084FA082000F095
:4000800075FA37602560F8BD30001040001BB7000C020B4078002E404E4E00007C002E406CF02E40DC05000008010B4000010B404508000010B572B60022304B1A60002429
:4000C00010E02F4863001A195200821891881B195B001A5AC31858880004104300F0F6F90134E4B2012CECD92549081C0C30103100F0C2F90022234B1A6099231B04224A42
:400100001360224A1360224A136080218903214A1160214A1360214B197802220A431A701F4802783C218A4328390A430270197816220A431A7020221A4B1A60C02292024D
:40014000194B1A60A0221201184B1A600422184B1A607C32174B1A60503A174B1A60B032164B1A60DB221204154B1A600522154B1A60FFF751FF00F099F910BD6CF02E40F2
:40018000440D00000000024000500F4010500F4020500F4024500F4030500F4000700F4001700F4000000440080004400801044000020440080204400C0204400003044084
:4001C000080304400804044010B5064C2378002B07D1054B002B02D0044800E000BF0123237010BDD00B002000000000680C000008B5084B002B03D00748084900E000BF33
:4002000007480368002B00D108BD064B002BFBD09847F9E700000000680C0000D40B0020A80B00200000000008B500F03BFC00F0FDFB08BD08B5044800F040F800F0D2FB78
:4002400000F01AFA08BDC0466C0C000010B500F0C7FB00F0E3FB0028FBD0FA20400000F0A3F900F0DBFB0028FBD0104800F00CFC00F0DCFB00F016FC00F016FA002000F037
:4002800017FC62B60A4800F019F80A4C201C00F015F8094800F012F8201C00F00FF8002000F006FCFFF7C6FF002010BD29020000880C00009C0C0000C80C000010B582B0C7
:4002C000041C01A80A49022200F0B6FC01A8022100F098FB201C00F0C0FC011C201C00F091FB01A8022100F08DFB02B010BDC0462C0D000070B5041C0D1C0B4E00223123D1
:40030000F2543136013E201C291C00F063FC074B59180B793370201C291C00F0D5FB041EF0D1301C70BDC046EC0B00202C0D00000FB430B583B006AB10CB019341E000F018
:40034000DFFA013420782528F9D16378633BDAB2152A35D893001F4AD3589F46019B1A1D0192187800F0CCFA2AE0019B1A1D01921D68002D03DA6D422D2000F0C1FA281CCD
:400380000A21FFF7B7FF00F02FFB19E0019B1A1D019218680821FFF7ADFF00F025FB0FE0019B1A1D0192186800F01EFB08E0019B1A1D019218681021FFF79CFF00F014FB25
:4003C00002342378002BBDD103B030BC08BC04B01847C046D40C0000FEE7C04670B50F4E0F4D13E029686B68AC68002202E001C901C30432A242FAD1E868002202E00021F7
:4004000002C304328242FAD11035013E002EE9D100F0ECFBFFF71AFFFEE7C04601000000AC0D000008B50F4A136801218B43136000230AE0032B03D89A000B49505800E0BB
:400440000A4899000A4A885001332F2BF2D9FFF731FE0022074B1A60024A116801230B43136008BD0000104000000000D903000000000020C0000020F0B50025002711E07C
:40048000BB00C658F3B2FF22964308E06A008A181478A419527822700135013BDBB2002BF4D10137002FEBD0F0BDC0460323044A1360044A13600022034B1A607047C04618
:4004C0003000304030003140000E3F4008B50A1C002100F0BAFB08BD0230800803D00138FDD1C046C046C0467047EFF3108072B6704780F31088704710B586B0041CFFF73F
:40050000F4FF0E4B1B6800930D4B1B680193033C0C4B1B5D02930C4B1B68039304AA0B4B04936B4605930A4B1A600A490A4A11601B68FFF7DEFF06B010BDC04608010B40D9
:4005400000010B40580D000030001040B6EA0000080010401700008004001040024B1B68012018407047C0460C002E401F2318401E3B8340181C014B1860704700E100E0C1
:4005800001BE704738B5041C0D1C1F2802D90020FFF7F6FFA400034B9C4664442068256038BDC0464000002010B5041C06E0084B1868FFF791FF074B9C46644480231B02BE
:4005C0009C42F4D8024B58686043FFF785FF10BDAC0B00200080FFFF08B5034B1B7A5843FFF77AFF08BDC046AC0B002010B5041C0F4A116801230B4313600E4A0E4B1A60F2
:400600000E4A1368802109020B431360002809D100200CE00120FFF7DFFFFFF79FFF002804D1013C002CF5D1102000E0002010BD60F02E400220000078002E4010002E4076
:4006400008B5FFF752FF094B1B689B030AD4074B1968074A0A4007490A431A601A681A681A681A60FFF745FF08BDC0462C000B40FF000100003A028010B5FFF736FF094C21
:40068000226880235B021340F22213432360FFF7D7FF23688022120613432360C046C04630BF10BD2C000B4010B5FFF71EFF084B1A6808490A40E824A40122431A601A68ED
:4006C0001A681A6811401960FFF713FF10BDC0462C000B40FF000100034B1868C0231B02184000D00120704700010B4010B50D4B1A6801218A431A601A68022082431A60D5
:40070000094A10683024A043203C204310601068093CA043014311601A68802109060A431A6010BD00F02E4000FF2E4038B51D4B1B6801241C40002802D0012816D02BE035
:40074000184B19680122914319601968022081431960154B19682E3081432038014319601968093881430A431A6018E00D4B1A6802218A431A600C4A10680725A84301437B
:400780001160116830208143103801431160196801220A431A6002E00020FFF7F1FE201C38BDC04600F02E4000FF2E4008B5FFF79CFE044A1368C02109020B431360FFF731
:4007C00098FE08BD00010B4010B5FFF78EFE08490A68084B1A408024E40122430A600A6813408022120213430B60FFF782FE10BD00010B40FF3FFFFF70B5061CFFF775FE8C
:40080000041CFFF769FF002803D0FFF7DDFF012500E000250848331C0340084A106808490840184310601368012D01D1FFF7BEFF201CFFF75EFE70BD0404040010020B40E0
:40084000FBFBFBFF10B5244B1B685B0715D5234B5B685B070ED5224B596A042001401F4C62688A4362605A6A82435A629B69002B00D098470420FFF7BFFF174B1B685B0576
:4008800018D5164B5B685B0510D5154B596A8022D2001140114842688A434260596A114A0A405A62DB69002B00D098478020C000FFF7A2FF084B1B685B030CD5074B5B6825
:4008C0005B0304D5064B1B6A002B00D098478020C002FFF791FF10BD10020B40BC0B0020200C0020FFFBFFFF000000000000000000000000000000000000000000000000D4
:40090000FEB5494652465B460EB407462E4909688A462E4A12682E48022100F0D5F803002A480068C0182A4900F0CEF806001F3EB346234A126801219140C9430C000125DB
:400940000026FFF7D2FD814651460B6823400B6058460430FFF7C0FD3800F040284090400B68234003430B605846FFF7B5FD0136072EF1D900200130012090400B682340AD
:4009800003430B6058460630FFF7A6FD4846FFF7B0FDC046C046C0460EBC894692469B46FEBDC046C046C046C046C046C046C046C046C046C046C046C046C046C046C0466F
:4009C000C80B0020480C0020C40B0020B80B002000C20100C046C046C046C046C046C0467047C0467047C04638B5051C0078012404E0FFF785FF285D0134E4B20028F8D113
:400A000038BDC04670B5061C0D1C002403E0305DFFF776FF0134AC42F9D370BD024B18684007C00F7047C04604020440034A10680423184010608008C0B27047100204408B
:400A4000014B98647047C0460000002010B5041CFFF74BFD044A1168044B0B40A4051C431460FFF746FD10BD00E400E0FFFF3FFF0422014B1A60704700E100E00422014B75
:400A80001A60704780E100E010B5041CFFF7F6FF201CFFF7D5FF0320FFF7D8FFFFF7E8FF10BDC0460422014B1A60704780E200E004490A68F7231A40C000EF3B18401043A1
:400AC0000860704700010440002243088B4274D303098B425FD3030A8B4244D3030B8B4228D3030C8B420DD3FF22090212BA030C8B4202D31212090265D0030B8B4219D3AF
:400B000000E0090AC30B8B4201D3CB03C01A5241830B8B4201D38B03C01A5241430B8B4201D34B03C01A5241030B8B4201D30B03C01A5241C30A8B4201D3CB02C01A524172
:400B4000830A8B4201D38B02C01A5241430A8B4201D34B02C01A5241030A8B4201D30B02C01A5241CDD2C3098B4201D3CB01C01A524183098B4201D38B01C01A52414309C6
:400B80008B4201D34B01C01A524103098B4201D30B01C01A5241C3088B4201D3CB00C01A524183088B4201D38B00C01A524143088B4201D34B00C01A5241411A00D20146D5
:400BC000524110467047FFE701B5002000F00CF802BDC0460029F7D003B5FFF775FF0EBC4243891A1847C0467047C0460E4B70B500251E1C0D4CE41AA410A54204D0AB006C
:400C0000F35898470135F8E700F0BEF8084B00251E1C084CE41AA410A54204D0AB00F35898470135F8E770BD940D0000940D0000940D00009C0D0000002310B5934203D029
:400C4000CC5CC4540133F9E710BD031C8218934202D019700133FAE770470023C25C0133002AFBD1581E70470000000053485245593A205475726E696E67204F666620746B
:400C80006865204368697000534852455920536C656576652056312E300000002A2A2A2A2A2A2A2A2A2A2A2A2A2A2A2A2A2A2A2A2A2A2A2A2A2A2A2A2A2A2A2A2A2A2A2AC7
:400CC0002A2A2A2A2A00000048656C6C6F20576F726C64005C0300006A030000C0030000C0030000C0030000C0030000C0030000C0030000C0030000C0030000C00300005F
:400D0000C00300008C030000C0030000C0030000C0030000A0030000C0030000C0030000C0030000C0030000AE0300000D0A000030313233343536373839414243444546FF
:400D40000000000000300F40000400400F40000402600F4002011101030405060708090A0B0C0E0F101112131415161718191B1C1D1E1F2021222325262728292A2B2E2FD6
:400D80003031323334350000F8B5C046F8BC08BC9E467047F101000025040000F8B5C046F8BC08BC9E467047C901000000110000A80B002028000000800000000000000007
:400DC00000000000000000000000000000000000000000000000000000000000000000000000000000000000000000000000000000000000000000000000000000000000F3
:400E000000000000000000000000000000000000000000000000000000000000000000000000000000000000000000000000000000000000000000000000000000000000B2
:400E40000000000000000000000000000000000000000000000000000000000000000000000000000000000000000000000000000000000000000000000000000000000072
:400E80000000000000000000000000000000000000000000000000000000000000000000000000000000000000000000000000000000000000000000000000000000000032
:400EC00000000000000000000000000000000000000000000000000000000000000000000000000000000000000000000000000000000000000000000000000000000000F2
:400F000000000000000000000000000000000000000000000000000000000000000000000000000000000000000000000000000000000000000000000000000000000000B1
:400F40000000000000000000000000000000000000000000000000000000000000000000000000000000000000000000000000000000000000000000000000000000000071
:400F80000000000000000000000000000000000000000000000000000000000000000000000000000000000000000000000000000000000000000000000000000000000031
:400FC00000000000000000000000000000000000000000000000000000000000000000000000000000000000000000000000000000000000000000000000000000000000F1
:4010000000000000000000000000000000000000000000000000000000000000000000000000000000000000000000000000000000000000000000000000000000000000B0
:401040000000000000000000000000000000000000000000000000000000000000000000000000000000000000000000000000000000000000000000000000000000000070
:401080000000000000000000000000000004050000000000000000000000000000000000000000000000000000000000000000000000000000000000000000000000000027
:4010C00000000000000000000000000000000000000000000000000000000000000000000000000000000000000000000000000000000000000000000000000000000000F0
:401100000000000000007017E02E00000C000000001BB700F000000004040400000004400500000000000000000000000000000000000000000000000000000000000000F7
:40114000000000000000000000000000000000000000000000000000000000000000000000000000000000000000000000000000000000000000000000000000000000006F
:40118000000000000000000000000000000000000000000000000000000000000000000000000000000000000000000000000000000000000000000000000000000000002F
:4011C00000000000000000000000000000000000000000000000000000000000000000000000000000000000000000000000000000000000000000000000000000000000EF
:4012000000000000000000000000000000000000000000000000000000000000000000000000000000000000000000000000000000000000000000000000000000000000AE
:020000040001F9
:0200000490303A
:020000006C8909
:0200000490402A
:4000000000000000000000000000000000000000000000000000000000000000000000000000000000000000000000000000000000000000000000000000000000000000C0
:400040000000000000000000000000000000000000000000000000000000000000000000000000000000000000000000000000000000000000000000000000000000000080
:0200000490501A
:0C00000000020E34119E00000E387E2716
:0200000490600A
:0100000002FD
:00000001FF